S01000004932435F53434433302E7333378A
S113000000100020A9050000A5050000A5050000BA
S1130010A5050000A5050000A5050000A505000034
S1130020A5050000A5050000A5050000A505000024
S1130030A5050000A5050000A5050000A505000014
S1130040A5050000A5050000A5050000A505000004
S1130050A5050000A5050000E9080000A5050000AD
S1130060A5050000A5050000A5050000A5050000E4
S1130070A5050000A5050000A5050000A5050000D4
S1130080A5050000A5050000A5050000A5050000C4
S1130090A5050000A5050000A5050000A5050000B4
S11300A0A5050000A505000099030000A5050000B2
S11300B0A5050000A5050000A5050000A505000094
S11300C0A5050000A5050000A5050000A505000084
S11300D0A5050000A5050000A5050000A505000074
S11300E0A5050000A5050000A5050000A505000064
S11300F0A5050000A5050000A5050000A505000054
S1130100A5050000A5050000A5050000A505000043
S1130110A5050000A5050000A5050000A505000033
S1130120A5050000A5050000A5050000A505000023
S1130130A505000010B5054C237833B9044B13B161
S1130140044800E000BF0123237010BD801000208C
S113015000000000502C000008B5034B1BB10349FC
S1130160034800E000BF08BD000000008410002028
S1130170502C0000A3F5803A704700BF174B002BAA
S113018008BF134B9D46FFF7F5FF00218B460F4632
S11301901348144A121A01F043FC0E4B002B00D0F2
S11301A098470D4B002B00D09847002000210400F5
S11301B00D000D48002802D00C4800E000BF01F0FB
S11301C00BFC2000290000F035F901F0F1FB00BF21
S11301D000000800000000000000000000100020E3
S11301E08010002008110020000000000000000022
S11301F01F23C340DB0710B5044604D440F22B414F
S1130200044800F083FB0120034B00FA04F4C3F814
S1130210A04010BD7029000000D00340012307B5A1
S113022018460222002100F093FE002301201A4602
S11302301946CDE9000000F027FE00230422022124
S1130240032000F085FE032100230846042200F069
S11302507FFE042200231146032000F079FE4FF0B4
S11302608062034BC3F880211A6003B05DF804FB7D
S113027000E100E030B585B06C46194B194D0FCB49
S113028084E80F0002214CF25033084602930B22FB
S1130290012300F05DFE01230B220021022000F067
S11302A057FE114B1148D3F8A014014041F002113C
S11302B0C3F8A014D3F89C242146024042F0020261
S11302C0C3F89C2403222846C3F8982400F020FF96
S11302D00022074B1A701023AB6005B030BD00BF7D
S11302E0C02900000000014A00C00340FCFFF0FFE9
S11302F0CE100020022310B586B0ADF804000291A0
S11303000D4801A9ADF80630ADF80C2001F048F80D
S1130310094C01280BD00422084B1A7010B1032099
S1130320FFF766FF0022064B1A7006B010BD204688
S113033000F022FFEDE700BF0000014ACF100020CB
S1130340CE100020012330B587B0ADF8063000236D
S11303500F4CADF81430ADF804000291ADF80C2048
S1130360049301AD0FCD0FC42B680A4801A9236083
S113037001F016F8074C012805D010B10320FFF74F
S113038037FF07B030BD204600F0F6FEF3E700BFAC
S1130390A01000200000014A08B5074B0121D3F842
S11303A0202403F50053C3F82024044800F092FEEF
S11303B00122034B1A7008BD00C003400000014A2B
S11303C0CE1000202DE9F84F0D460478CB1D03F420
S11303D0FC73214600AF8146ADEB030D14488DF844
S11303E0004001F025FB691EC9008C4021461048DD
S11303F0EA4601F01DFB0126A5F10208DFF830B042
S11304004FEAC808B54204DC00EE104ABD46BDE818
S1130410F88F19F8063058460AF8063003FA08F33C
S11304201C43214601F004FB0136A8F10808E9E762
S1130430BC2900002DE9F04387B003A801F00EF8B1
S1130440494A936DDB0313D4536B23F4FF0323F462
S1130450FE4343F4BC1343F4A0635363136B23F4CC
S1130460704343F440431363136B43F4E063136337
S11304709DF80D30012B0FD19DF80C3063B94FF06E
S113048000531B68394B1B68394B1B68394B1B687D
S1130490394B1B68394B1B68394A3A4DD2F88030C6
S11304A0394E43F00303C2F88030FFF7B7FEFFF77D
S11304B0E1FE00F079F90420FFF79AFE2B7803F0AF
S11304C0FF02002B49D00323304C0027A14602220F
S11304D001A9C220ADF80430FFF734FF40F6B8306C
S11304E000F0D6F912222146C220FFF703FF637BF6
S11304F0227B1B0443EA0263227C0DF10C081343A4
S1130500E27B43EA02233360237804218DF8083028
S1130510637802A88DF80930E37801378DF80A3042
S1130520237906348DF80B30FFF74CFF042FA8EC29
S1130530010AE9D1039B049A3360154B1A60059AAA
S1130540144B1A60BDF80430134A5BBA1380B9F82F
S11305500030124A5BBA1380B0E70421104BC3F891
S1130560A0102A70AAE700BF00C00040004000208D
S11305700080002000C00020000001200040012075
S113058000800040CE1000209C100020BC100020F1
S1130590D0100020B8100020B6100020B4100020A5
S11305A000F00340FEE7000008B500F013F8064B26
S11305B0064A07498B4201D3FFF7E0FD52F8040BCA
S11305C043F8040BF6E700BF00100020582C00008D
S11305D080100020044B054A9A60D3F8882042F426
S11305E07002C3F88820704700ED00E000000000AE
S11305F0014B1868704700BF04100020084B1B6FA4
S113060003F00703022B04D0032B05D0012B05D0E4
S1130610FEE7044B18687047034BFBE70348704739
S1130620008000400410002008100020002D31013B
S113063008B5FFF7E3FF054B1B6FC3F30133013329
S1130640B0FBF3F0024B186008BD00BF008000400F
S113065000100020014B1868704700BF08100020EC
S11306600020704700487047002D3101174B9868EF
S1130670C0F304400C2822D8DFE800F0092121212E
S11306802121071719211B1D1F00114870479B6862
S113069003F04073B3F1807F13D0B3F1007F12D025
S11306A00C4A002B08BF104670470B4870470B4894
S11306B070470B4870470B4870470B487047002041
S11306C070470A4870470A48704700BF0040014A13
S11306D0405DC60000093D000024F400C0EA210189
S11306E080BA8C010048E801005A620280841E002E
S11306F040420F004FF4004070474FF47A70704747
S1130700014B1868704700BF0C10002005490A68A7
S11307101318054883428CBF4FF0FF320B6010461C
S1130720704700BF1010002000800120F8B5074674
S1130730174C00F026FB174B656A1B6806469F4260
S11307402CBFED19ED18236BADB2DB0704D440F2D6
S11307500A31114800F0DAF81022104BA5665A61EC
S1130760A36930461343A36100F011FB0C4A0D4901
S113077013783BB100231370054A936923F01003E7
S11307809361F8BD0B6923F004030B6130BFEFE7FD
S113079000800440D8100020D029000000A00440AC
S11307A0DC10002000ED00E070B588B00E220021BE
S11307B004A801F035F901230D22002168468DF8C3
S11307C0103001F02DF90223274C6A4600212046FF
S11307D08DF8063000F002FF236BDB0704D440F2EF
S11307E07E41224800F092F84FF6FF73E361002344
S11307F01D4C1F4DADF81230204604A900F096FEA2
S1130800062000F035FABDF812300133B0FBF3F0E6
S11308109BB2B3F5806F2860ADF8123002D2154B4D
S11308209842E9D80F2000F023FA2E680025124CD4
S11308302946B4FBF0F411480023E6FB0401104AF6
S113084000F026FF0F4B084A18600F4B28461D7016
S1130850936923F01003936140220C4BC3F8802169
S11308601A6008B070BD00BF00800440D0290000A9
S1130870D410002080841E0000B0710B20A107005A
S113088040420F00D8100020DC10002000E100E0FE
S11308900021F8B5104B114C1D68114AE5FB0041CD
S11308A00023204600F0F4FE4FF6E95704460D46B7
S11308B00C4EBC4275F1000305D2A0B208B1FFF79B
S11308C035FF0020F8BD4FF6E850FFF72FFFA419BD
S11308D065F10005EDE700BFD410002020A107005A
S11308E040420F001802FFFF054B5B69DB0605D58C
S11308F01022044B5A610122034B1A70704700BF47
S11309000080044000A00440DC100020FEE700004A
S113091038B50F4B0546D3F880300C4603F003037B
S1130920022B09D0032B0FD00A4840F64571FFF77C
S1130930EDFF0023184602E0FFF77AFE0B2305B112
S1130940286004B1237038BDFFF790FE0523F6E755
S1130950008000401D2A000038B5154B0546D3F829
S113096020310C4603F00703013B032B17D8DFE8C3
S113097003F0020A0E12FFF73BFE042305B12860C0
S113098004B1237038BDFFF765FE0323F6E7FFF7D4
S11309906DFE0523F2E7FFF765FE0223EEE7054847
S11309A040F6BE71FFF7B2FF00231846E6E700BF2A
S11309B0008000401D2A000073B50024154B0194EB
S11309C0D3F88031064603F00303022B0D460FD003
S11309D0032B12D0012B15D1214601A8FFF7BCFF30
S11309E00D230EB1019A326005B12B7002B070BDB7
S11309F0FFF73CFE05230190F3E7FFF733FE0223E4
S1130A000190EEE741F2E2010348FFF77FFF23463E
S1130A10E7E700BF008000401D2A000038B5124BF4
S1130A200546D3F840310C4603F00303022B0BD0E8
S1130A30032B0DD0012B0FD1FFF75CFE082305B16A
S1130A40286004B1237038BDFFF75AFE0723F6E788
S1130A50FFF753FE0923F2E7044840F6EC71FFF771
S1130A6055FF00231846EAE7008000401D2A0000D5
S1130A7038B5124B0546D3F860310C4603F0030336
S1130A80022B0BD0032B0DD0012B0FD1FFF732FE1D
S1130A90082305B1286004B1237038BDFFF730FE88
S1130AA00723F6E7FFF729FE0923F2E7044841F29A
S1130AB01A01FFF72BFF00231846EAE700800040E5
S1130AC01D2A000038B5154B0546D3F800320C46F4
S1130AD003F00703013B032B18D8DFE803F0020AF5
S1130AE00E12FFF707FE082305B1286004B1237036
S1130AF038BDFFF705FE0723F6E7FFF7FEFD0923E0
S1130B00F2E7FFF795FD0C23800AEDE7044841F274
S1130B109811FFF7FBFE00231846E5E7008000402C
S1130B201D2A000038B5154B0546D3F808320C468B
S1130B3003F00703013B032B18D8DFE803F0020A94
S1130B400E12FFF7D7FD082305B1286004B1237006
S1130B5038BDFFF7D5FD0723F6E7FFF7CEFD0923E0
S1130B60F2E7FFF765FD0C23800AEDE7044841F244
S1130B70CC11FFF7CBFE00231846E5E700800040C8
S1130B801D2A000038B5124B0546D3F840320C46F6
S1130B9003F00303022B0BD0032B0DD0012B0FD139
S1130BA0FFF7A8FD082305B1286004B1237038BD00
S1130BB0FFF7A6FD0723F6E7FFF79FFD0923F2E7FA
S1130BC0044841F22B11FFF7A1FE00231846EAE77F
S1130BD0008000401D2A000038B5104B0546D3F8AC
S1130BE000310C4603F00303022B0BD0032B0DD072
S1130BF0012B0FD1FFF72EFD032305B1286004B1AB
S1130C00237038BDFFF77CFD0723F6E7FFF728FDC7
S1130C100623F2E701230020EFE700BF0080004035
S1130C20032810B51BD005D8012805D0022810D000
S1130C3000240CE00F28FBD10B4B1C6FC4F30134D0
S1130C40022C04D140F25B210848FFF75FFE601CD0
S1130C5010BD054BD3F89040C4F30464F7E7024B8E
S1130C601C6FC4F38024F2E7008000401D2A0000BA
S1130C701FB500230293252874D8DFE800F0131968
S1130C801C252A343950555A5F64696E73193E73B2
S1130C90735519252A25341950256E3939393925C2
S1130CA025255A5FFFF7AAFC0290029804B010BDF4
S1130CB0FFF7BEFCF8E7FFF7A1FC04460220FFF7AC
S1130CC0AFFFB4FBF0F0EFE7FFF7B2FC04460320FC
S1130CD0F5E7FFF7ADFC04460320FFF7A1FFB4FBE3
S1130CE0F0F04008E0E7002102A8FFF765FEDCE72A
S1130CF0002102A8FFF730FED7E703934FF0E0236B
S1130D001B695B0705D5FFF793FC0390039B0293D4
S1130D10CBE70DF1070103A8FFF780FEF6E70021FA
S1130D2002A8FFF77BFEC0E7002102A8FFF7A0FEA0
S1130D30BBE7002102A8FFF7C5FEB6E7002102A821
S1130D40FFF7F0FEB1E7002102A8FFF745FFACE78B
S1130D50002102A8FFF7DCFDA7E7002102A8FFF7A6
S1130D6011FFA2E740F27E310148FFF7CFFD9CE777
S1130D701D2A0000EFF3108072B6704700B962B606
S1130D807047EFF31180302383F31188704780F3A9
S1130D90118870471F2970B504460D46164603D9BD
S1130DA091210748FFF7B2FD36B104F580540121C3
S1130DB001FA05F5256070BD04F50054F7E700BF9E
S1130DC0682A000038B50D460446D8B101281BD066
S1130DD002281BD0032803D11F23EB40DB0704D4D4
S1130DE040F22B410A48FFF791FD3020012141F2E6
S1130DF01003444304F1804401FA05F504F570340A
S1130E00E55038BD7F23E8E70323E6E73F23E4E723
S1130E107029000038B50D460446D8B101281BD00E
S1130E2002281BD0032803D11F23EB40DB0704D483
S1130E304FF47F710A48FFF769FD3020012142F227
S1130E401003444304F1804401FA05F504F57034B9
S1130E50E55038BD7F23E8E70323E6E73F23E4E7D3
S1130E607029000070B5054614460E46FFF782FF50
S1130E70296881EA040202EA06044C402C60BDE8B9
S1130E807040FFF77BBF00002DE9F3470D46144681
S1130E901F4606469DF828909DF82C80002842D0D5
S1130EA0012842D0022842D0032803D11F21E9405F
S1130EB0CB0703D4BF211F48FFF728FD85EA0403AD
S1130EC033F0030303D0C1211A48FFF71FFD072C99
S1130ED012D803214FEA840A01FA0AF1164806FAE5
S1130EE00AF20191FFF7BEFF05F0030201991348CE
S1130EF002FA0AF2FFF7B6FF3A4621461048FFF716
S1130F0049FF4A4621460F48FFF744FF01230E4A92
S1130F10A340C2F82034214642460C4802B0BDE842
S1130F20F047FFF737BF7F21C1E70321BFE73F2128
S1130F30BDE700BFB32A000000C4034008C4034057
S1130F4010C4034014C4034000E0034024C403401D
S1130F50F8B50D4616461F46044658B301282BD053
S1130F6002282BD0032803D11F22EA40D30704D43C
S1130F704FF4B0711A48FFF7C9FC26B12946204640
S1130F80F7B1FFF71FFF3023072D4FF00F0104FBCC
S1130F9003F318D8A80006FA00F281401148184457
S1130FA0FFF760FFDEB929462046A7B1BDE8F84047
S1130FB0FFF708BF7F22D8E70322D6E73F22D4E712
S1130FC0FFF728FFDFE7A5F10800800006FA00F22A
S1130FD081400548E3E7BDE8F840FFF71BBFF8BDD3
S1130FE0B32A000004C003400CC00340F8B5064611
S1130FF00C4615469ABB40F20F11BDE8F8402F4845
S1131000FFF784BC2E4B9E4201D117203DE040F2F5
S113101029112A48FFF77AFC3AE0032F42D0294BE2
S11310203CE06FEAC50505442C44B4FBF0F4013CF4
S11310300AD540F275112148FFF768FC4FF4BB71E3
S11310401E48FFF763FC02E0B4F5007FF6D2B368F4
S11310509B0702D5002C08BF0124B461F8BD03F03E
S11310600307836823F440738360FFF783FEB26849
S113107082EA072303F440735340B360FFF77EFE14
S113108034B9114B9E42BDD11620FFF7F1FD044641
S1131090B3689A07C1D5032F04D00C4B53F82730FB
S11310A09C4204D84FF4AF710448FFF72FFC084B5F
S11310B0D85D6843B5D140F26F119EE7FF2A000066
S11310C000800640582B00000000014A4C2B000011
S11310D0642B000038B50B4B044698420D4607D0EC
S11310E0094B984204D040F28F110848FFF70EFCD8
S11310F0043425B104F580540123236038BD04F57C
S11311000054F9E70000014A00800640FF2A00006D
S113111038B5154B044698420D4607D0134B9842F8
S113112004D04FF4D2711248FFF7F0FB0023114AA8
S1131130236404F50053DA636A7804F108037AB986
S113114003F5805302221A602046D5E901122B7B55
S1131150FFF74CFF20462978BDE83840FFF7BABFB7
S113116003F50053EEE700BF0000014A008006408B
S1131170FF2A0000FFFF1F002DE9F843834B98422C
S11311800BD0834B984226D0824840F2FB11FFF7E4
S1131190BDFB6FF00300BDE8F8837F4B40250526B7
S11311A04FF000084FF0030C996800F50054C26B2F
S11311B012F4C06F15D097050FD5FD225A7009227D
S11311C01A700022026493F90110012900D15A70A7
S11311D093F90100DFE7714BE0E75605EFD5FE22F6
S11311E0ECE71F78082F00F2CD80DFE817F0090044
S11311F01F0041004C006900740096009E00C2006C
S11312004C880A88E5060AD5120A02F0060242F062
S1131210F002012119704263C1600120BBE702F0B2
S1131220FE02A10748BF42F00102F2E7170607D504
S1131230802100F50052D1634FF608721A8062E0F3
S11312405206EAD54A88E563D70604D502221A7005
S11312500B784363E1E7920765D507221A701B797F
S113126001EBC3010B89012BD7D10823C360D4E759
S11312701706DDD45206D0D54A88E563970752D5C0
S113128083F800C093E74C880A88E50643BF120A36
S113129002F0060242F0F00202F0FE02640709D5F1
S11312A01C7942F0010201EBC4010989012904BF40
S11312B00821C160042119700123C3604263ACE7B3
S11312C01706B5D45706A8D54A88E56352072AD528
S11312D007221A70A1E71A795F8801EBC20EBEF8E3
S11312E00890B94511D80132D2B21A714F88A3F8C7
S11312F0028017F0040FC3D1FF0702D4012A7FF63E
S113130056AF08221A700223B0E7DEF80420791CD5
S11313105980D25D42630622DBE7170688D457065C
S11313207FF57BAFE5631E7041E794067FF575AFEB
S113133020261A7900F5005401EBC2010A89456A96
S1131340E6635C88A24281BF4968661C5E800D55D5
S113135059888A42D5D90424012AC46004D9013A9F
S1131360914201D10822C2601A78092A3FF429AFB8
S113137053E7D2057FF551AF4FF4807100F5005269
S1131380D1631CE74FF609321A801AE70000014ABC
S113139000800640FF2A0000E0100020EC1000202E
S11313A038B5284B044698420D4644D0264B984203
S11313B03ED04FF457712548FFF7A8FA002D3DD1D0
S11313C040F25D312148FFF7A1FA1E4B9C4228D11F
S11313D01F4B2269D00744BF2022E2606A8891072C
S11313E001D5298951B3520701D52A8A32B34FF462
S11313F080721A6000229D601A71C023E3606369E1
S1131400DB0513D4202204F50053DA63114A204685
S1131410DA63236C43F4FC632364BDE83840FFF7CC
S1131420ABBE094B9C4209D10B4BD2E7636AE6E79A
S11314300029F9D1C4E70029CAD1C1E76FF003003C
S113144038BD00BF0000014A00800640FF2A0000AA
S1131450E0100020FFFF1F00EC100020054B5B692B
S1131460C3F38512827003F03F021B0B42700370BA
S1131470704700BF00C00740094B98420DD003F5E8
S11314808043984209D003F58043984205D003F580
S11314908043C31A5842584170470120704700BF27
S11314A0008004402DE9F0419846194B0E469842BD
S11314B015461DD003F5804398421BD003F58043A5
S11314C0984219D003F58043984217D011488221DD
S11314D0FFF71CFA4FF0FF3006210F4CB8F1000F54
S11314E00ED001FB006004EB8000C561BDE8F08113
S11314F00020F1E70120EFE70220EDE70320EBE70E
S113150001FB00602D0204EB8004E561EEE700BFFF
S113151000800440682B000000810340036BDA075D
S113152002D503695B06F9D47047000038B5054657
S11315300C46FFF7A1FF18B9A5212748FFF7E6F9E4
S11315402846FFF7EBFF012205F500531A632379C0
S113155061881B0243EA8143617A0B436178002965
S113156014BF402100210B43A17A002914BF80211C
S113157000210B43E17A002914BF202100210B43F1
S1131580217B002914BF102100210B43617B00291A
S113159014BF082100210B43A179002914BF4FF483
S11315A0803100210B436B6005F580531A63227868
S11315B00AB90223EB6000236B62E179237A43EAE0
S11315C081036179002914BF102100210B43AB6012
S11315D00AB10123EB6038BD682B0000F8B506465C
S11315E00F461446FFF748FF18B9F5212748FFF7BF
S11315F08DF9022F03D9F6212448FFF787F93046E5
S1131600FFF78CFF012206F500531A63E279E57AAD
S1131610002A627A14BF4FF480110021002A14BFFB
S113162010220022A37943EAC5430B43134306EB7C
S113163047152B66237A2BB3237B2A6E394642EA5D
S113164043422A66013B18BF0123A278FFF72AFF11
S1131650012306F580563363637822781B0643EA38
S11316608263E27843EA0233227943EA822362798D
S113167043EA0223A27A002A14BF0422002213435D
S11316806B66F8BD2B6E2B66E2E700BF682B00008B
S113169053B94AB9002908BF00281CBF4FF0FF31D5
S11316A04FF0FF3000F082B9ADF1080C6DE904CEC3
S11316B000F006F8DDF804E0DDE9022304B0704729
S11316C02DE9F04F099D04460F46002B48D18A426C
S11316D0944661D9B2FA82F343B1C3F120019F4029
S11316E002FA03FC9C4020FA01F10F434FEA1C412B
S11316F01FFA8CFE220CB7FBF1F601FB167706FBF2
S11317000EF042EA0742904208D91CEB020206F1AD
S1131710FF3702D2904200F237813E46121AA4B239
S1131720B2FBF1F001FB102200FB0EFE44EA02447E
S1131730A64508D91CEB040400F1FF3202D2A645E9
S113174000F21C81104640EA0640A4EB0E04002679
S11317501DB1DC400023C5E900433146BDE8F08FEC
S11317608B4209D9002D00F0FD800026C5E9000157
S113177030463146BDE8F08FB3FA83F6002E4BD1E4
S11317808B42C0F0F280824240F2EF803046002D5E
S1131790E3D0C5E90047E0E702B9FFDEB2FA82F31D
S11317A0002B40F09D80891A4FEA124E97B2012611
S11317B0200CB1FBFEF20EFB121140EA014107FBC3
S11317C002F088420FD91CEB010102F1FF382CBF53
S11317D04FF001094FF00009884203D9B9F1000F15
S11317E000F0CF804246091AA4B2B1FBFEF00EFB12
S11317F0101100FB07F744EA0144A74208D91CEB87
S1131800040400F1FF3102D2A74200F2B48008467A
S1131810E41B40EA02409BE7C6F12007B34001FA0B
S113182006F422FA07FCF940B2404CEA030C20FA11
S113183007F34FEA1C491C431FFA8CFE00FA06F317
S1131840200CB1FBF9F809FB181140EA014108FB2F
S11318500EF088420FD91CEB010108F1FF3A2CBFAE
S11318604FF0010B4FF0000B884203D9BBF1000F7E
S113187000F08D80D046091AA4B2B1FBF9F009FB3F
S1131880101100FB0EFE44EA01418E4507D91CEB02
S1131890010100F1FF3401D28E457FD8204640EA91
S11318A00840A1EB0E01A0FB029841454C46C646F8
S11318B002D306D14B4504D20138B9EB020468EBDC
S11318C00C0E002D70D01A1B61EB0E0122FA06F3E8
S11318D001FA07F7F14000261F43C5E900713CE710
S11318E002FA03FCC3F1200001FA03F221FA00F624
S11318F04FEA1C4E24FA00F11FFA8CF79C40114366
S1131900B6FBFEF00A0C0EFB106642EA064200FB30
S113191007F696420ED91CEB020200F1FF382CBFE9
S11319204FF001094FF00009964202D9B9F1000FB6
S113193031D04046921B89B2B2FBFEF60EFB162252
S113194041EA024106FB07F28A4207D91CEB010176
S113195006F1FF3801D28A4223D84646891A46EA5C
S1131960004625E72E462846F7E6841A61EB030372
S113197001201F460BE76444023849E764440238F7
S1131980E1E6023A61442EE7023E6244C6E6A8F16B
S1131990020861446FE702386244CBE702386144CD
S11319A07DE7023E6144D9E72E46D6E6704700BF84
S11319B008B5074B044613B1002100E000BF054BF6
S11319C01868836A03B19847204600F0C3FF00BF3C
S11319D000000000B82B000070B50D4D00260D4C22
S11319E0641BA410A64209D10B4D00260B4C00F039
S11319F0B3FF641BA410A64205D170BD55F8043B87
S1131A0001369847EEE755F8043B01369847F2E76C
S1131A107810002078100020781000207C1000201E
S1131A2002440346934200D1704703F8011BF9E7CF
S1131A300FB40A4B13B51C6824B1A36913B920462B
S1131A4000F066F805AB049AA1682046019300F003
S1131A5083F902B0BDE8104004B0704714100020B0
S1131A60002310B504468360818119464366C28110
S1131A7008228361C0E90033C0E904335C30FFF716
S1131A80CFFF054B24626362044BA362044BE36201
S1131A90044B236310BD00BF05230000272300006F
S1131AA05F23000083230000014900F0AFB800BFAA
S1131AB05926000070B568224D1E0E46554305F1A7
S1131AC0740100F0C5F8044640B1002105F1680234
S1131AD0C0E900160C30A060FFF7A2FF204670BDDD
S1131AE0014800F0B3B800BFF9100020014800F02D
S1131AF0AEB800BFF9100020014800F0A7B800BF3D
S1131B00FA100020014800F0A2B800BFFA1000202B
S1131B1010B50446FFF7F0FFA3691BB1BDE8104000
S1131B20FFF7F0BFC4E9123323652046124B134A72
S1131B301B68A262A34204BF0123A36100F020F842
S1131B406060204600F01CF8A060204600F018F801
S1131B5000220421E0606068FFF782FF012209216E
S1131B60A068FFF77DFF02221221E068FFF778FFEB
S1131B700123A361D2E700BFB82B0000A91A00001B
S1131B80F8B50746FFF7ACFF1E4B1E68B36913B9DF
S1131B903046FFF7BDFF4836D6E90134013B03D593
S1131BA033680BB33668F7E7B4F90C50D5B9164B64
S1131BB004F158006566E36000F047F8FFF796FF0C
S1131BC00822294604F15C002560A561C4E9015599
S1131BD0C4E90455FFF724FFC4E90D55C4E91255BF
S1131BE02046F8BD6834D9E704213846FFF762FF80
S1131BF0044630600028D5D1FFF778FF0C233B6002
S1131C00EEE700BFB82B00000100FFFF2DE9F84309
S1131C100646884600F148040027D4E90195B9F145
S1131C20010905D52468002CF7D13846BDE8F883AE
S1131C30AB89012B07D9B5F90E30013303D02946FE
S1131C403046C04707436835E9E770477047704737
S1131C50F8B5CD1C064625F0030508350C2D38BF14
S1131C600C25002D01DBA94203D90C23336000208D
S1131C70F8BD00F0B3FD21490A6814469CB9204F11
S1131C803B6823B92146304600F02CFB38602946D6
S1131C90304600F027FB431C23D10C23304633602D
S1131CA000F0A2FDE3E723685B1B17D40B2B03D9D9
S1131CB023601C44256004E06368A2420CBF0B60EF
S1131CC05360304600F090FD04F10B00231D20F01A
S1131CD00700C21ACCD01B1AA350C9E72246646875
S1131CE0CCE7C41C24F00304A042E3D0211A3046FC
S1131CF000F0F8FA0130DDD1CFE700BFFC1000207E
S1131D00001100209368013B002B936010B408DAA3
S1131D109469A34201DB0A2903D15DF8044B00F066
S1131D2035BB1368581C1060084619705DF8044BE5
S1131D307047F8B506460F461446D518AC4201D193
S1131D40002007E03A4614F8011B3046FFF7DAFF9B
S1131D50431CF3D1F8BD00002DE9F04F0D469DB0B2
S1131D6014469846064618B183690BB9FFF7D0FEAE
S1131D70894B9D421BD175686B6ED90705D4AB891D
S1131D809A0502D4A86DFFF761FFAB891B0701D543
S1131D902B69EBB92946304600F05CFBC0B16B6E91
S1131DA0DC070ED54FF0FF301DB0BDE8F08F7B4B44
S1131DB09D4201D1B568DFE7794B9D4208BFF568C4
S1131DC0DAE7AB899805EDD4A86DFFF740FFE9E7A2
S1131DD00023CDF80C804FF00109DFF8C881099386
S1131DE020238DF8293030238DF82A3023469A4653
S1131DF013F8012B0AB1252AF9D1BAEB040B0BD045
S1131E005B46224629463046FFF793FF013000F037
S1131E10AA80099A5A4409929AF80030002B00F0DB
S1131E20A28000234FF0FF320AF1010A04930793C2
S1131E308DF853301A93CDE90523544605225948A9
S1131E4014F8011B00F0BCFC049AD8B9D10644BFB5
S1131E5020238DF85330130744BF2B238DF85330C0
S1131E609AF800302A2B15D0079A544600204FF0D8
S1131E700A0C214611F8013B303B092B4ED9B0B175
S1131E80079214E0A0EB0803A24609FA03F31343F4
S1131E900493D2E7039B191D1B68002B0391BBBF5E
S1131EA05B4242F0020207930793B8BF049223787F
S1131EB02E2B0CD163782A2B35D1039B02341A1DA7
S1131EC01B68002B0392B8BF4FF0FF330593DFF874
S1131ED0E4A003222178504600F072FC40B1402374
S1131EE0A0EB0A00013403FA00F0049B03430493BB
S1131EF014F8011B06222C488DF8281000F060FC11
S1131F0000283FD0294B1BBB039B073323F0070357
S1131F1008330393099B3B44099367E70CFB0232A4
S1131F200C460120A5E7002301344FF00A0C1946A2
S1131F300593204610F8012B303A092A03D9002BC7
S1131F40C5D00591C3E70CFB012104460123F0E74A
S1131F5003AB2A4604A930460093154B00E000BFAA
S1131F600746781CD6D16B6ED90705D4AB899A0580
S1131F7002D4A86DFFF76BFEAB895B063FF512AF89
S1131F80099811E703AB2A4604A930460093084B8D
S1131F9000F082F8E4E700BFDC2B0000FC2B00001B
S1131FA0BC2B00001C2C0000262C000000000000AC
S1131FB0331D0000222C00002DE9F04716469946F7
S1131FC08A6807460B690C46DDF820809342B8BF47
S1131FD01346336091F843200AB101333360236818
S1131FE0990642BF336802333360256815F006054D
S1131FF006D104F1190AE36832689B1AAB4229DC62
S113200094F84320131E226818BF012392062ED48D
S113201004F1430249463846C047013021D02368C1
S11320201A3454F80E5C03F0060332680026042BBD
S113203054F8123C08BFAD1A54F80A2C14BF0025FA
S113204025EAE5759342C4BF9B1AED18B5421AD12F
S1132050002008E00123524649463846C047013073
S113206003D14FF0FF30BDE8F0870135C3E7E11835
S11320705A1C30200233224481F8430094F845105E
S113208082F84310C4E70123224649463846C04734
S11320900130E6D00136D9E72DE9FF470F7E91469E
S11320A080460C46782F9A460C9D01F1430207D8CE
S11320B0622F0AD8002F00F0D880582F00F0A38098
S11320C004F1420584F842703AE0A7F16303152B4A
S11320D0F6D801A151F823F0312100004521000078
S11320E0C1200000C1200000C1200000C120000068
S11320F045210000C1200000C1200000C1200000D3
S1132100C12000005122000075210000332200008C
S1132110C1200000C120000073220000C120000083
S113212075210000C1200000C12000003B220000F6
S11321302B681A1D1B682A6004F1420584F842309A
S11321400123A3E020682968060601F104030AD5E7
S11321500E682B60002E03DA2D23764284F8433078
S11321605E480A2319E00E6810F0400F2B6018BF78
S113217036B2EFE72B682068191D2960010601D5E6
S11321801E6802E04606FBD51E886F2F53480CBF1D
S113219008230A23002184F843106568002DA560F4
S11321A0A2BF216821F0040121600EB9002D4DD099
S11321B01546B6FBF3F103FB1167C75D05F8017D16
S11321C037460E46BB42F4D9082B0BD12368DE07F1
S11321D008D5236961689942DEBF302305F8013CC4
S11321E005F1FF35521B22614B4603AA21464046A6
S11321F0CDF800A0FFF7E0FE01304CD14FF0FF30E6
S113220004B0BDE8F087354881F845702968236833
S113221051F8046B29601D0614D5DF0744BF43F051
S1132220200323601EB9236823F0200323601023B6
S1132230B0E7236843F0200323607823284884F818
S11322404530E3E7590648BFB6B2E6E71546BBE7B3
S11322502B682668181D6169286035061B6801D53E
S1132260196002E07006FBD519800023154623612E
S1132270BAE72B6800211A1D2A601D686268284687
S113228000F09EFA08B1401B60606368236100237C
S113229084F84330A8E723692A4649464046D04794
S11322A00130ABD023689B0713D4E068039B9842AA
S11322B0B8BF1846A4E70123324649464046D047F2
S11322C001309BD00135E36803995B1AAB42F2DC21
S11322D0EBE7002504F11906F5E700BF2D2C0000FB
S11322E03E2C000038B50023054D044608462B60FB
S11322F0FEF70CFA431C02D12B6803B1236038BDEE
S11323000411002010B50C46B1F90E1000F0BEFA0D
S11323100028ABBF636DA3891B1823F48053ACBFA3
S11323206365A38110BD2DE9F0411F468B890546E5
S11323300C46DB05164605D502230022B1F90E1022
S113234000F0C6F9A3893246B4F90E10284623F4E6
S11323508053A3813B46BDE8F04100F069B810B555
S11323600C46B1F90E1000F0B3F9431CA38915BF54
S1132370606523F4805343F48053A38118BFA38181
S113238010BDB1F90E1000F0D3B80000F8B50E4638
S11323901446054618B183690BB9FFF7B9FB214B05
S11323A09C422BD16C68A369A360A3891A072FD51B
S11323B023696BB32369F6B220683746C01A636990
S11323C0834204DC2146284600F046F930BBA3686A
S11323D00130013BA36023685A1C22601E706369AC
S11323E0834204D0A389DB0706D50A2E04D12146F3
S11323F0284600F031F988B93846F8BD0A4B9C42AA
S113240001D1AC68CFE7094B9C4208BFEC68CAE72E
S11324102146284600F01EF80028CBD04FF0FF37A5
S1132420EAE700BFDC2B0000FC2B0000BC2B000003
S113243038B50446064D0846114600222A601A465D
S113244000F080FA431C02D12B6803B1236038BD2D
S113245004110020324B70B51D6806460C4625B1A8
S1132460AB6913B92846FFF753FB2E4B9C420FD19F
S11324706C68A389B4F90C2019072CD4DD0611D497
S11324800923336042F040034FF0FF30A3813EE064
S1132490254B9C4201D1AC68EBE7244B9C4208BF1E
S11324A0EC68E6E7580712D5616B41B104F14403C7
S11324B0994202D0304600F09DF900236363A3895A
S11324C023F02403A3810023636023692360A38989
S11324D043F00803A38123694BB9A38903F4207350
S11324E0B3F5007F03D02146304600F029F9A089D6
S11324F0B4F90C2010F001030AD00023A36063692F
S11325005B42A361236943B910F08000BAD170BD66
S1132510810758BF6369A360F4E70020F7E700BFB1
S113252014100020DC2B0000FC2B0000BC2B00004E
S113253038B50023054D044608462B6000F0DAF94F
S1132540431C02D12B6803B1236038BD0411002061
S11325508A892DE9F041054610070C4658D44B688A
S1132560002B05DC0B6C002B02DC0020BDE8F081A5
S1132570E66A002EF9D0002312F480522F682B60F3
S113258032D0606DA3895A0705D56368C01A636B9E
S11325900BB1236CC01A00230246E66A2846216A5E
S11325A0B047431CA38906D129681D292CD8294A80
S11325B0CA40D60728D50022D90462602269226065
S11325C004D5421C01D12B6803B96065616B2F608F
S11325D00029CAD004F14403994202D0284600F0ED
S11325E009F900206063C1E7216A01232846B04746
S11325F0411CC7D12B68002BC4D01D2B01D0162B36
S113260001D12F60B1E7A38943F04003A381ADE773
S11326100F69002FA9D093070E680F600CBF4B6998
S11326200023A6EB07088B60B8F1000F9DDD43463D
S11326303A46216A2846A66AB047002806DCA389E0
S11326404FF0FF3043F04003A3818FE70744A8EB2A
S11326500008E9E70100402038B50B6905460C463F
S113266013B90025284638BD18B183690BB9FFF7A3
S11326704FFA144B9C421BD16C68B4F90C30002BFC
S1132680EFD0626ED00704D4990502D4A06DFFF791
S1132690DDFA28462146FFF75BFF636E0546DA073D
S11326A0E0D4A3899B05DDD4A06DFFF7D0FAD9E768
S11326B0054B9C4201D1AC68DFE7044B9C4208BF48
S11326C0EC68DAE7DC2B0000FC2B0000BC2B0000DC
S11326D038B50446064D0846114600222A601A46BB
S11326E000F020F9431C02D12B6803B1236038BDEC
S11326F00411002070B50E46B1F90E1096B01446C0
S113270000291D4608DAB6F90C3000222A601A06A0
S113271010D44FF480630EE06A4600F0C9F8002834
S1132720F1DB019A02F47042A2F500535A425A4175
S11327302A60EEE740230020236016B070BD00003D
S11327408B8973B59D0706460C4607D504F14703EC
S1132750236023610123636102B070BD01AB6A464B
S1132760FFF7C8FF009905463046FFF771FA48B9EC
S1132770B4F90C309A05EFD423F0030343F00203B9
S1132780A381E3E70D4BB362A389206043F0800388
S11327902061A381009B6361019B5BB1B4F90E10BE
S11327A0304600F097F828B1A38923F0030343F0DF
S11327B00103A381A0890543A581CDE7A91A0000DF
S11327C0C9B2024410B59042034601D1002303E08C
S11327D01C7801308C42F6D1184610BD0148FFF731
S11327E035BA00BFF81000200148FFF730BA00BF27
S11327F0F810002037B5002943D051F8043C0C1FD1
S11328000190002BB8BFE418FFF7E8FF1E4A0198B7
S1132810136833B96360146003B0BDE83040FFF758
S1132820E3BFA34208D9256861198B4201BF196827
S11328305B6849192160EDE71A465B680BB1A34256
S1132840FAD911685518A5420BD1246821445418AB
S11328501160A342E0D11C685B682144536011609D
S1132860DAE702D90C230360D6E7256861198B42A5
S113287002BF19685B684919636008BF216054602E
S1132880CAE703B030BD00BFFC10002038B50446D1
S1132890064D0846114600222A601A4600F04AF8FE
S11328A0431C02D12B6803B1236038BD04110020FE
S11328B038B50023064D0446084611462B6000F047
S11328C021F8431C02D12B6803B1236038BD00BF3B
S11328D00411002038B50023054D044608462B603A
S11328E000F018F8431C02D12B6803B1236038BDF3
S11328F004110020024B58224FF0FF301A60704739
S113290004110020024B58224FF0FF301A60704728
S113291004110020024B582200201A60704700BFA7
S113292004110020024B58224FF0FF301A60704708
S113293004110020024B58224FF0FF301A607047F8
S113294004110020024B58224FF0FF301A607047E8
S113295004110020FEE700BFF8B500BFF8BC08BCB6
S11329609E467047F8B500BFF8BC08BC9E46704749
S1132970633A5C75736572735C73616D75655C73E2
S1132980696D706C696369747973747564696F5C7B
S113299073646B735C6765636B6F5F73646B5C70AC
S11329A06C6174666F726D5C656D6C69625C696E96
S11329B0635C656D5F6770696F2E680025640A004B
S11329C00101000000000000A086010000000000DA
S11329D0633A5C75736572735C73616D75655C7382
S11329E0696D706C696369747973747564696F5C1B
S11329F073646B735C6765636B6F5F73646B5C704C
S1132A006C6174666F726D5C656D6C69625C696E35
S1132A10635C656D5F74696D65722E6800433A2F5F
S1132A2055736572732F73616D75652F53696D707E
S1132A306C696369747953747564696F2F53444B7B
S1132A40732F6765636B6F5F73646B2F706C617456
S1132A50666F726D2F656D6C69622F7372632F657B
S1132A606D5F636D752E6300633A5C757365727395
S1132A705C73616D75655C73696D706C69636974B1
S1132A807973747564696F5C73646B735C67656395
S1132A906B6F5F73646B5C706C6174666F726D5C9A
S1132AA0656D6C69625C696E635C656D5F627573AC
S1132AB02E6800433A2F55736572732F73616D75D9
S1132AC0652F53696D706C696369747953747564A7
S1132AD0696F2F53444B732F6765636B6F5F736428
S1132AE06B2F706C6174666F726D2F656D6C6962AB
S1132AF02F7372632F656D5F6770696F2E63004378
S1132B003A2F55736572732F73616D75652F536911
S1132B106D706C696369747953747564696F2F534C
S1132B20444B732F6765636B6F5F73646B2F706CBB
S1132B306174666F726D2F656D6C69622F73726359
S1132B402F656D5F6932632E6300000080841E0070
S1132B50404B4C00809FD50080841E004054890067
S1132B60002D310108091108433A2F55736572731A
S1132B702F73616D75652F53696D706C696369742A
S1132B807953747564696F2F53444B732F6765636E
S1132B906B6F5F73646B2F706C6174666F726D2FF3
S1132BA0656D6C69622F7372632F656D5F74696DF7
S1132BB065722E6300000000181000200000000061
S1132BC00000000000000000000000000000000001
S1132BD000000000000000000000000000000000F1
S1132BE000000000000000000000000000000000E1
S1132BF000000000000000000000000000000000D1
S1132C0000000000000000000000000000000000C0
S1132C10000000000000000000000000232D302B05
S1132C202000686C4C0065666745464700303132C9
S1132C303334353637383941424344454600303120
S1132C40323334353637383961626364656600007F
S10B2C5024D5FF7F0100000000
S1132C58C0EA2101C0EA210100F049020080000015
S1132C68081100201810002000000000DC2B0000D0
S1132C78FC2B0000BC2B000000000000000000003A
S1132C880000000000000000000000000000000038
S1132C980000000000000000000000000000000028
S1132CA80000000000000000000000000000000018
S1132CB80000000000000000000000000000000008
S1132CC80000000000000000590100003501000068
S90305A94E
